:020000040800F2
:10D00000FFFF00202DF8000881F8000881F80008D3
:10D0100081F8000881F8000881F80008000000008D
:10D0200000000000000000000000000081F800087F
:10D0300081F800080000000081F8000881F800086D
:10D0400081F8000881F8000881F8000881F80008DC
:10D0500081F8000881F8000881F8000881F80008CC
:10D0600081F8000881F8000881F8000881F80008BC
:10D0700081F8000881F8000881F8000881F80008AC
:10D0800081F8000881F8000881F8000881F800089C
:10D0900081F8000881F8000881F8000881F800088C
:10D0A00081F8000881F8000881F8000881F800087C
:10D0B00081F80008000000000000000081F800086E
:10D0C00081F8000881F8000881F8000881F800085C
:10D0D00081F8000881F80008EDDB000881F80008FD
:10D0E00081F8000881F8000800000000000000003E
:10D0F0000000000000000000000000000000000030
:10D100000000000081F800080000000081F800081D
:10D11000000000000000000081F8000881F800080D
:10D1200081F8000881F8000881F8000881F80008FB
:10D1300081F800080000000000000000000000006E
:10D1400081F8000881F8000881F80008000000005C
:10D1500081F8000881F8000881F8000881F80008CB
:10D1600081F8000881F8000881F80008000000003C
:10D1700081F8000881F800080000000000000000AD
:10D1800081F8000881F8000881F80008000000001C
:10D8000010B5054C237833B9044B13B10448AFF37A
:10D8100000800123237010BD404100200000000063
:10D82000F8F8000808B5034B1BB103490348AFF3F0
:10D83000008008BD0000000044410020F8F8000806
:10D8400072B640F207104FF001014FF0010200F0F4
:10D850000BF94FF484704FF001014FF0010200F01A
:10D8600003F940F209104FF001014FF0010200F0FE
:10D87000FBF862B66A4801F0C5FF6A4A116801F117
:10D8800001011160684A9142F7D3664A4FF00001E6
:10D890001160664A16684C2E40F0A780644B1968E8
:10D8A00001F1010119606348614A116801F0AAFFA2
:10D8B0005E4A4FF0410717605F48604A116801F007
:10D8C000A1FF5E4A1168002909D140F207104FF00C
:10D8D000000100F01AF95A4801F094FF7BE0574A22
:10D8E0001168012909D14FF484704FF0000100F054
:10D8F0000CF9544801F086FF6DE0504A1168022986
:10D9000009D140F209104FF0000100F0FEF84E4836
:10D9100001F078FF5FE0494A1168032912D140F213
:10D9200007104FF0000100F0F0F8454801F06AFFE1
:10D930004FF484704FF0000100F0E7F8414801F027
:10D9400061FF48E03D4A1168042912D140F20710F6
:10D950004FF0000100F0D9F8394801F053FF40F2D0
:10D9600009104FF0000100F0D0F8374801F04AFFED
:10D9700031E0324A1168052912D14FF484704FF01A
:10D98000000100F0C2F82F4801F03CFF40F20910FE
:10D990004FF0000100F0B9F82B4801F033FF1AE016
:10D9A00040F207104FF0000100F0AFF8244801F0FA
:10D9B00029FF4FF484704FF0000100F0A6F82148D1
:10D9C00001F020FF40F209104FF0000100F09DF837
:10D9D0001D4801F017FF194B196801F101010729D2
:10D9E00001D34FF00001196018E0104A4FF04C07C6
:10D9F000176040F207104FF0010100F086F84FF475
:10DA000084704FF0010100F080F840F209104FF0EF
:10DA1000010100F07AF80D4801F0F4FE2DE7000056
:10DA2000004000201041002032F154001441002039
:10DA300020410020CE400020EA400020304100205C
:10DA40009B400020AB400020BD4000208E400020C5
:10DA500000B5044605464FEA142420464FF0FF0661
:10DA600005EA0605294600BDFFB513460A46FFF73D
:10DA7000EFFF594F3D684FF0010606FA00F645EA00
:10DA800006053D6007464FF4806407FB04F74FF03E
:10DA9000904427444FF002040E4606FB04F64FF074
:10DAA000030404FA06F46FEA04043D6805EA040579
:10DAB000012A22D14FF0010404FA06F445EA0405D4
:10DAC0003D60012B0CD13D4605F118052C684FF047
:10DAD000010606FA01F644EA06042C6000F014F888
:10DAE0003D4605F128052C684FF0010606FA01F6BF
:10DAF00044EA06042C6000F007F84FF0030404FA2F
:10DB000006F425EA04053D60FFBDFFB50B46FFF7AF
:10DB10009FFF05464FF4806606FB05F6012B0BD1EF
:10DB20002E4D35442C684FF0010606FA01F644EA02
:10DB300006042C6000F00AF8294D35442C684FF09B
:10DB4000010606FA01F644EA06042C60FFBDFFB5A3
:10DB5000FFF77EFF05464FF4806606FB05F6214D74
:10DB600035442F684FF0010404FA01F404EA070475
:10DB7000002C0BD1194D35442C684FF0010606FAE4
:10DB800001F644EA06042C6000F00AF8144D35440E
:10DB90002C684FF0010606FA01F644EA06042C60F0
:10DBA000FFBD00B5FFF754FF05464FF4806606FB46
:10DBB00005F60D4D35442F684FF0010404FA01F4C9
:10DBC00004EA0704002C03D14FF0000200F002F831
:10DBD0004FF0010200BD00004C1002401800004848
:10DBE00028000048140000481000004872B680B5B4
:10DBF00081B06F46391C022001F000F9011C02209F
:10DC000001F0BEF862B60437BD4680BD034613F886
:10DC1000012B002AFBD1181A0138704781F000410E
:10DC200002E000BF83F0004330B54FEA41044FEA01
:10DC3000430594EA050F08BF90EA020F1FBF54EA9C
:10DC4000000C55EA020C7FEA645C7FEA655C00F038
:10DC5000E2804FEA5454D4EB5555B8BF6D420CDD09
:10DC60002C4480EA020281EA030382EA000083EA8C
:10DC7000010180EA020281EA0303362D88BF30BD2C
:10DC800011F0004F4FEA01314FF4801C4CEA113182
:10DC900002D0404261EB410113F0004F4FEA0333E1
:10DCA0004CEA133302D0524263EB430394EA050F6C
:10DCB00000F0A780A4F10104D5F1200E0DDB02FADB
:10DCC0000EFC22FA05F2801841F1000103FA0EF26F
:10DCD000801843FA05F359410EE0A5F120050EF135
:10DCE000200E012A03FA0EFC28BF4CF0020C43FA66
:10DCF00005F3C01851EBE37101F0004507D54FF073
:10DD0000000EDCF1000C7EEB00006EEB0101B1F5C2
:10DD1000801F1BD3B1F5001F0CD349085FEA300008
:10DD20004FEA3C0C04F101044FEA445212F5800F13
:10DD300080F09A80BCF1004F08BF5FEA500C50F1B0
:10DD4000000041EB045141EA050130BD5FEA4C0C93
:10DD5000404141EB010111F4801FA4F10104E9D11C
:10DD600091F0000F04BF01460020B1FA81F308BF13
:10DD70002033A3F10B03B3F120020CDA0C3208DDDF
:10DD800002F1140CC2F10C0201FA0CF021FA02F1BA
:10DD90000CE002F11402D8BFC2F1200C01FA02F12A
:10DDA00020FA0CFCDCBF41EA0C019040E41AA2BF4F
:10DDB00001EB0451294330BD6FEA04041F3C1CDA17
:10DDC0000C340EDC04F11404C4F1200220FA04F037
:10DDD00001FA02F340EA030021FA04F345EA0301E1
:10DDE00030BDC4F10C04C4F1200220FA02F001FAA3
:10DDF00004F340EA0300294630BD21FA04F0294625
:10DE000030BD94F0000F83F4801306BF81F48011BD
:10DE10000134013D4EE77FEA645C18BF7FEA655C30
:10DE200029D094EA050F08BF90EA020F05D054EA02
:10DE3000000C04BF1946104630BD91EA030F1EBF07
:10DE40000021002030BD5FEA545C05D1400049410B
:10DE500028BF41F0004130BD14F580043CBF01F5FE
:10DE6000801130BD01F0004545F0FE4141F47001E4
:10DE70004FF0000030BD7FEA645C1ABF19461046BF
:10DE80007FEA655C1CBF0B46024650EA013406BFC0
:10DE900052EA033591EA030F41F4002130BD00BF7F
:10DEA00090F0000F04BF0021704730B54FF480643C
:10DEB00004F132044FF000054FF0000150E700BFBD
:10DEC00090F0000F04BF0021704730B54FF480641C
:10DED00004F1320410F0004548BF40424FF0000109
:10DEE0003EE700BF42004FEAE2014FEA31014FEA4C
:10DEF00002701FBF12F07F4393F07F4F81F060519B
:10DF0000704732F07F4208BF704793F07F4F04BFE5
:10DF100041F40021704730B54FF4607401F00045C2
:10DF200021F000411CE700BF50EA010208BF704722
:10DF300030B54FF000050AE050EA010208BF704713
:10DF400030B511F0004502D5404261EB41014FF47C
:10DF5000806404F132045FEA915C3FF4D8AE4FF084
:10DF600003025FEADC0C18BF03325FEADC0C18BF67
:10DF7000033202EBDC02C2F1200300FA03FC20FAB8
:10DF800002F001FA03FE40EA0E0021FA02F1144405
:10DF9000BDE600BF70B54FF0FF0C4CF4E06C1CEA1E
:10DFA00011541DBF1CEA135594EA0C0F95EA0C0F8F
:10DFB00000F0DEF82C4481EA030621EA4C5123EA02
:10DFC0004C5350EA013518BF52EA033541F4801131
:10DFD00043F4801338D0A0FB02CE4FF00005E1FBE4
:10DFE00002E506F00042E0FB03E54FF00006E1FB2E
:10DFF00003569CF0000F18BF4EF0010EA4F1FF0471
:10E00000B6F5007F64F5407404D25FEA4E0E6D41B0
:10E0100046EB060642EAC62141EA55514FEAC520C1
:10E0200040EA5E504FEACE2EB4F1FD0C88BFBCF53D
:10E03000E06F1ED8BEF1004F08BF5FEA500E50F1EE
:10E04000000041EB045170BD06F0004646EA0101B4
:10E0500040EA020081EA0301B4EB5C04C2BFD4EBE6
:10E060000C0541EA045170BD41F480114FF0000EDF
:10E07000013C00F3AB8014F1360FDEBF002001F04D
:10E08000004170BDC4F10004203C35DA0C341BDCC7
:10E0900004F11404C4F1200500FA05F320FA04F099
:10E0A00001FA05F240EA020001F0004221F00041CD
:10E0B00010EBD37021FA04F642EB06015EEA430E40
:10E0C00008BF20EAD37070BDC4F10C04C4F1200570
:10E0D00000FA04F320FA05F001FA04F240EA020023
:10E0E00001F0004110EBD37041F100015EEA430EF4
:10E0F00008BF20EAD37070BDC4F1200500FA05F214
:10E100004EEA020E20FA04F301FA05F243EA020392
:10E1100021FA04F001F0004121FA04F220EA0200A1
:10E1200000EBD3705EEA430E08BF20EAD37070BDE7
:10E1300094F0000F0FD101F00046400041EB0101C7
:10E1400011F4801F08BF013CF7D041EA060195F0A9
:10E15000000F18BF704703F00046520043EB030363
:10E1600013F4801F08BF013DF7D043EA0603704750
:10E1700094EA0C0F0CEA135518BF95EA0C0F0CD05B
:10E1800050EA410618BF52EA4306D1D181EA0301A1
:10E1900001F000414FF0000070BD50EA410606BF9B
:10E1A0001046194652EA430619D094EA0C0F02D1E0
:10E1B00050EA013613D195EA0C0F05D152EA033625
:10E1C0001CBF104619460AD181EA030101F0004143
:10E1D00041F0FE4141F470014FF0000070BD41F08C
:10E1E000FE4141F4780170BD70B54FF0FF0C4CF466
:10E1F000E06C1CEA11541DBF1CEA135594EA0C0F85
:10E2000095EA0C0F00F0A7F8A4EB050481EA030ED1
:10E2100052EA03354FEA013100F088804FEA0333B8
:10E220004FF0805545EA131343EA12634FEA022286
:10E2300045EA111545EA10654FEA00260EF0004147
:10E240009D4208BF964244F1FD0404F5407402D299
:10E250005B084FEA3202B61A65EB03055B084FEA2A
:10E2600032024FF480104FF4002CB6EB020E75EB27
:10E27000030E22BFB61A754640EA0C005B084FEA4F
:10E280003202B6EB020E75EB030E22BFB61A7546CC
:10E2900040EA5C005B084FEA3202B6EB020E75EB17
:10E2A000030E22BFB61A754640EA9C005B084FEA8F
:10E2B0003202B6EB020E75EB030E22BFB61A75469C
:10E2C00040EADC0055EA060E18D04FEA051545EA8B
:10E2D00016754FEA06164FEAC30343EA52734FEA34
:10E2E000C2025FEA1C1CC0D111F4801F0BD141EAAD
:10E2F00000014FF000004FF0004CB6E711F4801F12
:10E3000004BF01430020B4F1FD0C88BFBCF5E06FF1
:10E310003FF6AFAEB5EB030C04BFB6EB020C5FEA01
:10E32000500C50F1000041EB045170BD0EF0004E56
:10E330004EEA113114EB5C04C2BFD4EB0C0541EA88
:10E34000045170BD41F480114FF0000E013C90E685
:10E3500045EA060E8DE60CEA135594EA0C0F08BF49
:10E3600095EA0C0F3FF43BAF94EA0C0F0AD150EA48
:10E3700001347FF434AF95EA0C0F7FF425AF1046DB
:10E3800019462CE795EA0C0F06D152EA03353FF403
:10E39000FDAE1046194622E750EA410618BF52EA80
:10E3A00043067FF4C5AE50EA41047FF40DAF52EA54
:10E3B00043057FF4EBAE12E74FF0FF3C06E000BFF1
:10E3C0004FF0010C02E000BF4FF0010C4DF804CDFE
:10E3D0004FEA410C7FEA6C5C4FEA430C18BF7FEABE
:10E3E0006C5C1BD001B050EA410C0CBF52EA430CEC
:10E3F00091EA030F02BF90EA020F0020704710F16C
:10E40000000F91EA030F58BF994208BF90422CBFFA
:10E41000D8176FEAE37040F0010070474FEA410CF3
:10E420007FEA6C5C02D150EA013C07D14FEA430C11
:10E430007FEA6C5CD6D152EA033CD3D05DF8040B82
:10E44000704700BF8446104662468C4619466346B4
:10E4500000E000BF01B5FFF7B7FF002848BF10F18B
:10E46000000F01BD4DF808EDFFF7F4FF0CBF0120D0
:10E4700000205DF808FB00BF4DF808EDFFF7EAFF4C
:10E4800034BF012000205DF808FB00BF4DF808ED07
:10E49000FFF7E0FF94BF012000205DF808FB00BFFC
:10E4A0004DF808EDFFF7CEFF94BF012000205DF886
:10E4B00008FB00BF4DF808EDFFF7C4FF34BF012093
:10E4C00000205DF808FB00BF53B94AB9002908BF16
:10E4D00000281CBF4FF0FF314FF0FF3000F094B91F
:10E4E000ADF1080C6DE904CE00F028F8DDF804E089
:10E4F000DDE9022304B07047D0B500220D4B06467B
:10E500000F46FFF747FD00F081F90446FFF7C8FC0E
:10E510000022094BFFF73EFD02460B4630463946C6
:10E52000FFF780FB00F072F90022234610431946E2
:10E53000D0BD00BF0000F03D0000F0412DE9F047E4
:10E54000089E04468846002B4BD18A42154667D95F
:10E55000B2FA82F24AB1C2F1200701FA02F320FABC
:10E5600007F7954047EA030894404FEA154E230CFD
:10E57000B8FBFEF71FFA85FC0EFB178843EA084339
:10E5800007FB0CF1994209D9EB1807F1FF3080F035
:10E590001B81994240F21881023F2B445B1AA4B2BE
:10E5A000B3FBFEF00EFB103344EA034400FB0CFC0B
:10E5B000A44509D92C1900F1FF3380F00781A44547
:10E5C00040F2048102382C4440EA0740A4EB0C04DA
:10E5D00000271EB1D4400023C6E900433946BDE8F8
:10E5E000F0878B4209D9002E00F0EB800027C6E9A6
:10E5F000000138463946BDE8F087B3FA83F7002FAB
:10E6000047D18B4202D3824200F2FA80841A61EB36
:10E61000030301209846002EE0D0C6E90048DDE75C
:10E6200002B9FFDEB2FA82F2002A40F08F80491B65
:10E630004FEA154E1FFA85F80127B1FBFEFC230CAB
:10E640000EFB1C1143EA014308FB0CF1994207D968
:10E65000EB180CF1FF3002D2994200F2CD808446D3
:10E66000591AA3B2B1FBFEF00EFB101443EA0444A6
:10E6700008FB00F8A04507D92C1900F1FF3302D29E
:10E68000A04500F2B6801846A4EB080440EA0C400E
:10E690009FE7C7F1200CBB4022FA0CFE4EEA030EA6
:10E6A00001FA07F420FA0CF521FA0CF34FEA1E48A0
:10E6B0002543B3FBF8F92C0C08FB19331FFA8EFA2B
:10E6C00044EA034309FB0AF49C4202FA07F200FA07
:10E6D00007F10BD91EEB030309F1FF3080F08780AF
:10E6E0009C4240F28480A9F1020973441B1BADB225
:10E6F000B3FBF8F008FB103345EA034400FB0AFAC9
:10E70000A24508D91EEB040400F1FF336BD2A245E9
:10E7100069D90238744440EA0940A0FB0289A4EB9D
:10E720000A044C45C2464B4654D351D0002E69D002
:10E73000B1EB0A0564EB030404FA0CFCFD40FC4059
:10E740004CEA0505C6E90054002747E7C2F120035B
:10E7500020FA03F7954001FA02F021FA03F34FEA99
:10E76000154E3843010CB3FBFEF71FFA85F80EFB7C
:10E77000173341EA034107FB08F38B4204FA02F422
:10E7800007D9691807F1FF3C2FD28B422DD9023FE0
:10E790002944CB1A81B2B3FBFEF00EFB103341EAE1
:10E7A000034100FB08F38B4207D9691800F1FF3CD5
:10E7B00017D28B4215D902382944C91A40EA0747B3
:10E7C0003BE73746304609E70746E7E61846FBE6EB
:10E7D0004145ABD2B8EB020A69EB0E020138134691
:10E7E000A4E76046E9E7184695E76746D1E7814622
:10E7F0007CE702382C4447E7ACF1020C2B442FE7AE
:10E80000384608E73746E9E6704700BF4A0011D2AC
:10E8100012F5001211D20DD56FF47873B3EB62527A
:10E820000ED44FEAC12343F0004343EA505323FA86
:10E8300002F070474FF00000704750EA013002D1FB
:10E840004FF0FF3070474FF00000704780B483B046
:10E8500000AF0346FB8000BF1F4B1B6903F48033EE
:10E86000002BF9D11C4B1B691B4A23F07F4313611A
:10E87000194B5B69184A23F001035361164B5B691E
:10E88000154A43F002035361134B5B69124A23F4A8
:10E890007E735361104B5B69FA88D20011460E4AB1
:10E8A0000B4353610C4B5B690B4A43F48033536158
:10E8B00000BF094B1B6903F48033002BF9D1064BD1
:10E8C0005B69054A23F002035361002318460C37A5
:10E8D000BD465DF8047B70470020024090B5ADF660
:10E8E0001C0D00AF0446084611463A1D136007F19F
:10E8F0000E0322461A8007F10C0302461A8007F124
:10E900000A030A461A80424B1B69414A23F07F439F
:10E91000136107F10C031A8807F10A031B881344DB
:10E92000B3F5006F2DDD07F10C031B88C3F5006301
:10E930009CB23B1D07F10C02118807F10E021088F2
:10E940001B682246FFF7CAFF07F10E031B8801333D
:10E9500098B207F10C0207F10A0312881B881344CE
:10E960009BB2A3F500639AB207F10C031B88C3F5B1
:10E97000006319463B1D1B680B440021FFF7AEFFE7
:10E9800039E007F10E03198807F114004FF4006312
:10E99000002200F067F80023A7F8163813E0B7F854
:10E9A00016383A1D12681A4407F10C031988B7F893
:10E9B00016380B44117807F11402D154B7F8163801
:10E9C0000133A7F8163807F10A03B7F816281B8891
:10E9D0009A42E4D307F10E031B881846FFF736FF6F
:10E9E00007F1140207F10E03188813464FF4006272
:10E9F000002100F0EBF800BF054B1B6903F48033E6
:10EA0000002BF9D10023184607F61C07BD4690BD20
:10EA10000020024080B586B000AFF8600B467A60F7
:10EA20007B81FB6803F17843DB0AFB82FB689AB2C7
:10EA3000FB8ADB029BB2D31ABB827A89B98AF88A35
:10EA40007B68FFF74BFF00BF054B1B6903F4803366
:10EA5000002BF9D1002318461837BD4680BD00BFF2
:10EA60000020024080B586B000AFF860084611462D
:10EA70001A4603467B810B463B811346FB807B890C
:10EA800003F58033DA023B8913447B61FB881A4625
:10EA90007969F86800F01CFF00BF1837BD4680BDDB
:10EAA00080B586B000AFF860B9601346FB80BB68E4
:10EAB0007B61FB881A467969F86800F009FF00BF9E
:10EAC0001837BD4680BDB0B586B000AF03460A46D4
:10EAD000FB801346BB806B461D46B8880346013B4E
:10EAE0003B6181B24FF000024FF000034FF0000491
:10EAF000D40044EA5174CB0081B24FF000024FF0D1
:10EB000000034FF00004D40044EA5174CB000346E4
:10EB10000733DB08DB00ADEB030D6B460033FB6016
:10EB20000123FB82FB8803F58033DB02BB60FB68BB
:10EB3000BA88B968184600F0CBFE0023BB820AE011
:10EB4000BB8AFA68D35CFF2B02D00023FB8206E06D
:10EB5000BB8A0133BB82BA8ABB889A42F0D3FB8A54
:10EB6000DBB2AD4618461837BD46B0BD80B485B09F
:10EB700000AFF860B9607A60134B1B6803F48063E0
:10EB8000002B05D0104B1B680F4A23F480631360E1
:10EB90000D4B5B690C4A43F001035361FB68BA6893
:10EBA0001A60FB6804331A467B681360064B5B6986
:10EBB000054A23F001035361002318461437BD466C
:10EBC0005DF8047B704700BF0020024080B588B02C
:10EBD00000AF7B600346FB810B46BB8113467B8104
:10EBE00000BF324B1B6903F48033002BF9D1FB8942
:10EBF00003F58033DA02BB891344BB610023FB8336
:10EC000043E0FB8B7A6813441B781946FB8B013376
:10EC10007A6813441B781B0241EA0302FB8B023320
:10EC200079680B441B781B041A43FB8B0333796808
:10EC30000B441B781B0613437B61FB8B04337A6800
:10EC400013441B781946FB8B05337A6813441B78F1
:10EC50001B0241EA0302FB8B063379680B441B78E5
:10EC60001B041A43FB8B073379680B441B781B0684
:10EC700013433B61FA8BBB6913443A6979691846BF
:10EC8000FFF774FFFB8B0833FB83FA8B7B899A4277
:10EC9000B7D300BF054B1B6903F48033002BF9D1B8
:10ECA000002318462037BD4680BD00BF002002402B
:10ECB00080B5ADF6080D00AF18217F20FFF703FFE8
:10ECC0000346002B04D0274A18212748FFF7A2FE4D
:10ECD0004FF00063C7F804383B1D4FF4006223492E
:10ECE0001846FFF7DDFE3B1DD3F8DC30D7F80428CB
:10ECF000DC321268934226D01A20FFF7A7FDD7F81E
:10ED00000438DC331B681A463B1DC3F8DC20D7F8F7
:10ED100004382C331B681A463B1DDA62D7F80438D6
:10ED200038331B681A463B1D9A63D7F804383C33C6
:10ED30001B681A463B1DDA633B1D1A464FF40061FF
:10ED40000A48FFF767FE0A4B084A9A60094B0A4ACD
:10ED50001A600A4800F056FD00BF07F60807BD46D6
:10ED600080BD00BF10F9000800F8030800D00008BB
:10ED700000ED00E05C410020009800082CF900083C
:10ED800080B584B000AF03460A46FB711346BB71E1
:10ED9000FB79184600F076F80346002B01D10023DA
:10EDA00025E00023FB6015E0FB79013B124A52F895
:10EDB0002330DB6903F08003002B08D0FB79013B93
:10EDC0000D4A52F82330BA7992B21A8507E0FB68EF
:10EDD0000133FB60FB684FF6BA329342E4D9FB681B
:10EDE0004FF6BA32934201D9002300E001231846BE
:10EDF0001037BD4680BD00BF3441002080B584B0CF
:10EE000000AF03463960FB71FB79184600F03AF811
:10EE10000346002B04D13B6800221A7000232BE02C
:10EE20000023FB6018E0FB79013B154A52F82330C0
:10EE3000DB6903F02003002B0BD0FB79013B104A68
:10EE400052F823309B8C9BB2FB723B6801221A70F4
:10EE500007E0FB680133FB60FB684FF6BA32934270
:10EE6000E1D9FB684FF6BA32934204D9FF23FB7213
:10EE70003B6800221A70FB7A18461037BD4680BDE9
:10EE80003441002080B483B000AF0346FB71FB79AE
:10EE9000002B02D0FB79032B01D9002300E00123D2
:10EEA00018460C37BD465DF8047B704780B500AF4F
:10EEB000174BD3F88830164A43F47003C2F88830F1
:10EEC000144B1B68134A43F001031360114B0022DB
:10EED0009A60104B1B680F4A23F0A85323F41023A9
:10EEE00013600C4B4FF48052DA600A4B1B68094ADE
:10EEF00023F480231360074B00229A61B02000F0B6
:10EF00000BF8034B4FF000629A6000BF80BD00BF5A
:10EF100000ED00E00010024080B487B000AF7860E0
:10EF200000233B612B4B9B6D03F08053002B05D0DE
:10EF3000294B1B6803F4C0637B6116E0254B9B6D76
:10EF4000244A43F080539365224B9B6D03F080531A
:10EF5000FB60FB68204B1B6803F4C0637B611D4BA7
:10EF60009B6D1C4A23F0805393657B69B3F5007F4A
:10EF70000AD17B68802B07D97B68A02B02D902239A
:10EF80003B6101E001233B61144B1B6823F0070246
:10EF900012493B6913430B60104B1B6803F00703D6
:10EFA0003A699A4201D000230EE00A4B1B68094AD5
:10EFB00043F008031360074B1B6823F0F003054A76
:10EFC00043F0B0031360012318461C37BD465DF8BB
:10EFD000047B704700100240007000400020024097
:10EFE00010B50C461368012B05D0022B07D02368FF
:10EFF0000133236010BD5368C0B29847F7E79368A8
:10F000001870936801339360F1E730B4441C002515
:10F010000570B2B1096809B1002009E030234370DE
:10F02000012024E0C1F1300121700130013411468A
:10F03000E9B191FBF3F203FB12110029F2DB30314D
:10F04000F2E715460A6842B93023437001200EE00A
:10F0500037322270013501340A463AB1B2FBF3F17E
:10F0600001FB1322092AF3D83032F2E7284630BCDC
:10F070007047F8B504460D4617461E4605E0324671
:10F0800039463020FFF7ACFF0134AC42F7DBF8BD66
:10F09000F8B504460D4617461E4605E03246394689
:10F0A0002020FFF79DFF0134AC42F7DBF8BD08B527
:10F0B00001460320FFF764FE08BD000000000000C9
:10F0C0002DE9F047ADF54A7D05460F4692464FF4CF
:10F0D000C8742246002166A800F005FC22460021E3
:10F0E00002A800F000FCD5E9004520462946FFF7BC
:10F0F00003FA80468946FEF717FF02460B46204674
:10F100002946FEF78FFD04460D46534604E00022D3
:10F110004D4BFEF73FFF33465E1E002BF7D1FFF746
:10F12000EBF9CDE90001002608E00022464B20461D
:10F130002946FEF72FFF04460D46013640A3D3E9CA
:10F14000002320462946FFF797F938B10022002313
:10F1500020462946FFF786F90028E6D058EA090339
:10F1600025D130233B7001235D1C2E22FA54DDE9AA
:10F17000008943464C46234333D0002447E00A220B
:10F18000002340464946FFF79FF9651C66AB43F8EC
:10F1900024200A22002340464946FFF795F980467D
:10F1A00089462C4658EA0903E9D1002308E00024E7
:10F1B000F8E7013C66AA52F824203032FA540133B1
:10F1C000002CF6D1D0E730237B55134601355A1E6B
:10F1D000002BF8D100237B5528460DF54A7DBDE86C
:10F1E000F0875346F3E70A22002340464946FFF7DB
:10F1F0006BF904F1010A02AB43F824200A22002330
:10F2000040464946FFF760F980468946544658EA29
:10F210000903E8D105E0002302AA42F82430013EA8
:10F220000134002EF7D106E0013C02AB53F8243044
:10F2300030337B550135002CF6D1CBE7AFF300809E
:10F240009A9999999999B93F000024402DE9F04F76
:10F2500097B001900C469146212200210DA800F0A4
:10F2600042FB30238DF8343000230C9301220292AC
:10F270009B460BE0019D2A460CA90D20FFF7B0FE2E
:10F280002A460CA90A20FFF7ABFE0134207800289B
:10F2900000F0B482252841D00A28EBD0019A0CA9AD
:10F2A000FFF79EFEF1E746F00106144600293AD129
:10F2B000621C6378203B102B33D801A050F823F058
:10F2C0000BF3000823F3000823F3000817F30008EA
:10F2D00023F3000823F3000823F3000823F30008B6
:10F2E00023F3000823F3000823F3000805F30008C4
:10F2F00023F30008A7F2000823F3000823F3000813
:10F3000011F3000846F00206CFE746F00406CCE70A
:10F3100046F00806C9E746F01006C6E70026314663
:10F32000C4E70121C2E700252F4600E00F4667B978
:10F33000601C6378A3F13002092AF7D805EB850534
:10F340006A00303BD5180446F1E7621C63782E2B27
:10F3500036D04FF00008CDF80880631C6278682A28
:10F3600004D06C2A42D04C2A43D023465C1C5878E7
:10F37000A0F15803202B00F23A82DFE813F01F01BE
:10F3800038023802380238023802380238023802AD
:10F390003802A201EF013D0038029A00380238021B
:10F3A0003D00380238023802380231028401B101CE
:10F3B00038023802F9013802C001380238021F0150
:10F3C0004FF00008404600E0384668B9541C5378B6
:10F3D000A3F130010929F7D808EB88084FEA480261
:10F3E00002EB01082246F0E71446B6E74BF0010BAA
:10F3F000BCE74BF0020BB9E709F10407D9F800307C
:10F4000016A941F82C3D0A2301220DA8FFF7FDFDA6
:10F4100082460DAB03EB00080B9B002B07DB16F0BD
:10F42000020F17D000F1010A4FF02B0903E000F1A1
:10F43000010A4FF02D0916F0080F19D0B9F1000F8D
:10F4400010D1019B0CAA29465046FFF712FEAA468E
:10F45000B94671E116F00409EDD000F1010A4FF050
:10F460002009E8E7019A0CA94846FFF7B9FDE8E74B
:10F4700016F0010F04D0B9F1000F13D1B9465BE1CA
:10F48000019B0CAA29465046FFF702FEB9F1000F76
:10F4900001D1B94650E1019A0CA94846FFF7A0FDF9
:10F4A000B94649E1019A0CA94846FFF799FDB946CA
:10F4B00042E109F10C07D9E9019ACDE9089A002245
:10F4C000002348465146FEF7D7FF40B916F0020F19
:10F4D0002BD116F004090DD04FF020090AE0CDF829
:10F4E00010900AF1004305939DED047B8DED087BA0
:10F4F0004FF02D09029BDBB9BBF1000F1FD1062293
:10F500000DA908A8FFF7DCFD804616F0080F23D0F0
:10F51000B9F1000F1AD1019B0CAA29464046FFF70A
:10F52000A8FDA8460DF1340937E04FF02B09E1E7BB
:10F5300042460DA908A8FFF7C3FD8046E5E706226D
:10F540000DA908A8FFF7BCFD8046DEE7019A0CA9CB
:10F550004846FFF745FDDEE716F0010F08D0B9F188
:10F56000000FDFD0019A0CA94846FFF739FDD9E713
:10F57000019B0CAA29464046FFF78AFDB9F1000F0E
:10F58000D0D0019A0CA94846FFF72AFDCAE709F135
:10F590000109019A0CA9FFF723FD99F80000002842
:10F5A000F5D116F0010F01D1B9466EE6019B0CAA08
:10F5B00029464046FFF76CFDB94666E609F10403AB
:10F5C0000393D9F8003016A941F83C3D10230022DE
:10F5D0000DA8FFF71AFD82460DAB03EB000816F0ED
:10F5E000080921D016F0100910D1019B0CAA294658
:10F5F0005046FFF73EFDAA4616F0100F00F0AB8014
:10F60000B9F1000F2FD0DDF80C9095E0DDF80490F3
:10F610004A460CA93020FFF7E3FC4A460CA97820A3
:10F62000FFF7DEFCB946E0E716F0010FE4D116F073
:10F63000100901D000F1020A019B0CAA294650468C
:10F64000FFF726FDB9F1000FD6D0DDF804904A4649
:10F650000CA93020FFF7C4FC4A460CA97820FFF71C
:10F66000BFFCB946C8E7019F3A460CA93020FFF716
:10F67000B7FC3A460CA97820FFF7B2FC0AF1020A5F
:10F68000DDF80C9058E009F10407D9F8003016A90C
:10F6900041F83C3D082300220DA8FFF7B6FC824646
:10F6A000B9460DAB03EB0A0816F0080F36D116F079
:10F6B000010F41D1019B0CAA29465046FFF7E8FCF7
:10F6C0003AE009F10407D9F8003016A941F83C3DA9
:10F6D000022300220DA8FFF798FC8246B946E0E716
:10F6E00009F10407D9F8003016A941F83C3D102370
:10F6F00000220DA8FFF789FC8246B946D1E709F13F
:10F700000407D9F8003016A941F83C3D0A2300222D
:10F710000DA8FFF77AFC8246B946C2E7019B0CAA06
:10F7200029465046FFF7A5FCAA4605E008F1FF3838
:10F73000019A0CA9FFF754FC98F800000028F5D1B5
:10F7400016F0010F3FF4A1AD019B0CAA29465046CB
:10F75000FFF79EFC99E5DDF80C90EDE709F1040553
:10F76000019A0CA999F80000FFF73AFCA9468CE52C
:10F7700009F1040AD9F80070002F3DD03846FEF791
:10F7800045FA814616F0010603D0B8F1000F0DD1FD
:10F7900018E0019B0CAA2946FFF77AFCF5E708F16F
:10F7A000FF380137019A0CA9FFF71AFCB8F1000FD6
:10F7B0000BDD38780028F2D107E00137019A0CA957
:10F7C000FFF70EFC38780028F7D10EB9D1465CE57A
:10F7D000019B0CAA29464846FFF75AFCD14654E53E
:10F7E000D9F800300C9A1A6009F104094DE5019A24
:10F7F0000CA9FFF7F5FB48E5D14646E50C9817B094
:10F80000BDE8F08F0FB400B585B001230193064B1E
:10F81000029306AA52F8041B01A8FFF717FD05B0D2
:10F820005DF804EB04B07047AFF00008DFF838D0A3
:10F83000002103E00D4B5B58435004310C480D4B45
:10F8400042189A42F6D30C4A02E0002342F8043BE5
:10F850000A4B9A42F9D3FFF729FBFFF729FA00F088
:10F8600013F8FDF7EDFFFEE7FFFF002070F9000839
:10F870000040002040410020404100206041002025
:10F8800000B500BF00BD000070B50D4E0D4CA41BAF
:10F89000A4100025A54209D10B4E0C4C00F02CF809
:10F8A000A41BA4100025A54205D170BD56F8253033
:10F8B00098470135EEE756F8253098470135F2E7CD
:10F8C00060F9000860F9000860F9000864F90008B0
:10F8D00010B5431E0A44914200D110BD11F8014BEE
:10F8E00003F8014FF7E702440346934200D1704703
:10F8F00003F8011BF9E70000F8B500BFF8BC08BC2D
:10F900009E467047F8B500BFF8BC08BC9E467047DD
:10F910003031323334353637383941424344454645
:10F920003230323030373136000000002020A1BEA6
:10F9300055736572CCE1CABEA1BFA3BABDABBDF819
:10F94000C8EB55736572B5C46D61696E2829D6B46C
:08F95000D0D02E2E2E0D0A006E
:08F95800E4EBFF7F0100000059
:08F9600025D80008000000009A
:08F9680001D8000800000000B6
:10F970002D2D2D2D2D2D2D2D2D2D2D2D2D2D2D2DB7
:10F980002D2D2D2D2D2D2D2D2D2D2D2D2D2D2D2DA7
:10F990002D2D2D2D2D2D2D2D2D2D2D2D2D2D2D2D97
:10F9A0002D2D2D2D2D2D2D0A20CAB9D3C3475049F9
:10F9B0004FB5E3C1C1C6DFD6D6D1D5C9ABB5C4B644
:10F9C000FEBCABB9DC0A2D2D2D2D2D2D2D2D2D2D71
:10F9D0002D2D2D2D2D2D2D2D2D2D2D2D2D2D2D2D57
:10F9E0002D2D2D2D2D2D2D2D2D2D2D2D2D2D2D2D47
:10F9F0002D2D2D2D2D2D2D2D2D2D2D2D0A004C494C
:10FA00004748543A4F46462D2D0A004C4947485422
:10FA10005F5245443A4F4E2D2D0A004C49474854F9
:10FA20005F475245454E3A4F4E2D2D0A004C4947EF
:10FA300048545F424C55453A4F4E2D2D0A00B5C6ED
:10FA4000B5C4C9C1CBB8B4CECAFD6D4C6967687482
:10FA5000436F756E743D25640A00B5C6B5C4C9C14F
:10FA6000CBB8C0E0D0CD6D4C6967687454797065CF
:10FA70003D25640A000000000000000000000000B6
:10FA8000000000004C00000000000000000000002A
:10FA90000000000000000000000000000000000066
:10FAA00000000000003801400044004000480040D1
:040000050800F82DCA
:00000001FF
