:020000040800F2
:10D00000FFFF00206DF10008C1F10008C1F1000828
:10D01000C1F10008C1F10008C1F1000800000000E2
:10D02000000000000000000000000000C1F1000846
:10D03000C1F1000800000000C1F10008C1F10008C2
:10D04000C1F10008C1F10008C1F10008C1F10008F8
:10D05000C1F10008C1F10008C1F10008C1F10008E8
:10D06000C1F10008C1F10008C1F10008C1F10008D8
:10D07000C1F10008C1F10008C1F10008C1F10008C8
:10D08000C1F10008C1F10008C1F10008C1F10008B8
:10D09000C1F10008C1F10008C1F10008C1F10008A8
:10D0A000C1F10008C1F10008C1F10008C1F1000898
:10D0B000C1F100080000000000000000C1F10008FC
:10D0C000C1F10008C1F10008C1F10008C1F1000878
:10D0D000C1F10008C1F1000871D80008C1F10008D1
:10D0E000C1F10008C1F100080000000000000000CC
:10D0F0000000000000000000000000000000000030
:10D1000000000000C1F1000800000000C1F10008AB
:10D110000000000000000000C1F10008C1F100089B
:10D12000C1F10008C1F10008C1F10008C1F1000817
:10D13000C1F1000800000000000000000000000035
:10D14000C1F10008C1F10008C1F1000800000000B1
:10D15000C1F10008C1F10008C1F10008C1F10008E7
:10D16000C1F10008C1F10008C1F100080000000091
:10D17000C1F10008C1F1000800000000000000003B
:10D18000C1F10008C1F10008C1F100080000000071
:10D8000010B5054C237833B9044B13B10448AFF37A
:10D8100000800123237010BDF040002000000000B4
:10D8200038F2000808B5034B1BB103490348AFF3B6
:10D83000008008BD00000000F440002038F200081D
:10D84000094801F07FFC4FF001004FF0000100F0AB
:10D850000102002A00D0014400F101006428F6D141
:10D86000024801F06FFC000000400020D240002080
:10D8700072B680B581B06F46391C022000F0B4FF4B
:10D88000011C022000F08CFF62B60437BD4680BD4B
:10D89000034613F8012B002AFBD1181A01387047F0
:10D8A00081F0004102E000BF83F0004330B54FEA51
:10D8B00041044FEA430594EA050F08BF90EA020FBE
:10D8C0001FBF54EA000C55EA020C7FEA645C7FEA51
:10D8D000655C00F0E2804FEA5454D4EB5555B8BF74
:10D8E0006D420CDD2C4480EA020281EA030382EAE5
:10D8F000000083EA010180EA020281EA0303362D77
:10D9000088BF30BD11F0004F4FEA01314FF4801C49
:10D910004CEA113102D0404261EB410113F0004F5B
:10D920004FEA03334CEA133302D0524263EB430312
:10D9300094EA050F00F0A780A4F10104D5F1200EB0
:10D940000DDB02FA0EFC22FA05F2801841F100010B
:10D9500003FA0EF2801843FA05F359410EE0A5F1DF
:10D9600020050EF1200E012A03FA0EFC28BF4CF010
:10D97000020C43FA05F3C01851EBE37101F00045C6
:10D9800007D54FF0000EDCF1000C7EEB00006EEBD3
:10D990000101B1F5801F1BD3B1F5001F0CD349085D
:10D9A0005FEA30004FEA3C0C04F101044FEA4452B4
:10D9B00012F5800F80F09A80BCF1004F08BF5FEA3B
:10D9C000500C50F1000041EB045141EA050130BD1B
:10D9D0005FEA4C0C404141EB010111F4801FA4F1BE
:10D9E0000104E9D191F0000F04BF01460020B1FA13
:10D9F00081F308BF2033A3F10B03B3F120020CDA4B
:10DA00000C3208DD02F1140CC2F10C0201FA0CF028
:10DA100021FA02F10CE002F11402D8BFC2F1200C8D
:10DA200001FA02F120FA0CFCDCBF41EA0C01904043
:10DA3000E41AA2BF01EB0451294330BD6FEA04048C
:10DA40001F3C1CDA0C340EDC04F11404C4F1200277
:10DA500020FA04F001FA02F340EA030021FA04F389
:10DA600045EA030130BDC4F10C04C4F1200220FAE0
:10DA700002F001FA04F340EA0300294630BD21FA1E
:10DA800004F0294630BD94F0000F83F4801306BFE4
:10DA900081F480110134013D4EE77FEA645C18BFD8
:10DAA0007FEA655C29D094EA050F08BF90EA020F6F
:10DAB00005D054EA000C04BF1946104630BD91EA67
:10DAC000030F1EBF0021002030BD5FEA545C05D16A
:10DAD0004000494128BF41F0004130BD14F58004A9
:10DAE0003CBF01F5801130BD01F0004545F0FE411D
:10DAF00041F470014FF0000030BD7FEA645C1ABF52
:10DB0000194610467FEA655C1CBF0B46024650EA88
:10DB1000013406BF52EA033591EA030F41F40021B4
:10DB200030BD00BF90F0000F04BF0021704730B53A
:10DB30004FF4806404F132044FF000054FF000010F
:10DB400050E700BF90F0000F04BF0021704730B5D0
:10DB50004FF4806404F1320410F0004548BF4042A5
:10DB60004FF000013EE700BF42004FEAE2014FEAFA
:10DB700031014FEA02701FBF12F07F4393F07F4FD5
:10DB800081F06051704732F07F4208BF704793F0D8
:10DB90007F4F04BF41F40021704730B54FF46074EB
:10DBA00001F0004521F000411CE700BF50EA0102EE
:10DBB00008BF704730B54FF000050AE050EA010297
:10DBC00008BF704730B511F0004502D5404261EB07
:10DBD00041014FF4806404F132045FEA915C3FF448
:10DBE000D8AE4FF003025FEADC0C18BF03325FEAE5
:10DBF000DC0C18BF033202EBDC02C2F1200300FA96
:10DC000003FC20FA02F001FA03FE40EA0E0021FABA
:10DC100002F11444BDE600BF70B54FF0FF0C4CF4A8
:10DC2000E06C1CEA11541DBF1CEA135594EA0C0F5A
:10DC300095EA0C0F00F0DEF82C4481EA030621EA95
:10DC40004C5123EA4C5350EA013518BF52EA0335D0
:10DC500041F4801143F4801338D0A0FB02CE4FF082
:10DC60000005E1FB02E506F00042E0FB03E54FF0B2
:10DC70000006E1FB03569CF0000F18BF4EF0010EAA
:10DC8000A4F1FF04B6F5007F64F5407404D25FEAA6
:10DC90004E0E6D4146EB060642EAC62141EA555159
:10DCA0004FEAC52040EA5E504FEACE2EB4F1FD0C9B
:10DCB00088BFBCF5E06F1ED8BEF1004F08BF5FEA19
:10DCC000500E50F1000041EB045170BD06F00046CB
:10DCD00046EA010140EA020081EA0301B4EB5C0478
:10DCE000C2BFD4EB0C0541EA045170BD41F4801170
:10DCF0004FF0000E013C00F3AB8014F1360FDEBF95
:10DD0000002001F0004170BDC4F10004203C35DA70
:10DD10000C341BDC04F11404C4F1200500FA05F3F3
:10DD200020FA04F001FA05F240EA020001F0004294
:10DD300021F0004110EBD37021FA04F642EB06010A
:10DD40005EEA430E08BF20EAD37070BDC4F10C0434
:10DD5000C4F1200500FA04F320FA05F001FA04F2F8
:10DD600040EA020001F0004110EBD37041F10001E4
:10DD70005EEA430E08BF20EAD37070BDC4F12005EF
:10DD800000FA05F24EEA020E20FA04F301FA05F257
:10DD900043EA020321FA04F001F0004121FA04F2FF
:10DDA00020EA020000EBD3705EEA430E08BF20EACF
:10DDB000D37070BD94F0000F0FD101F00046400009
:10DDC00041EB010111F4801F08BF013CF7D041EA8B
:10DDD000060195F0000F18BF704703F0004652008F
:10DDE00043EB030313F4801F08BF013DF7D043EA60
:10DDF0000603704794EA0C0F0CEA135518BF95EA16
:10DE00000C0F0CD050EA410618BF52EA4306D1D19C
:10DE100081EA030101F000414FF0000070BD50EABB
:10DE2000410606BF1046194652EA430619D094EA45
:10DE30000C0F02D150EA013613D195EA0C0F05D12F
:10DE400052EA03361CBF104619460AD181EA030183
:10DE500001F0004141F0FE4141F470014FF000003B
:10DE600070BD41F0FE4141F4780170BD70B54FF0D6
:10DE7000FF0C4CF4E06C1CEA11541DBF1CEA135556
:10DE800094EA0C0F95EA0C0F00F0A7F8A4EB050438
:10DE900081EA030E52EA03354FEA013100F088802F
:10DEA0004FEA03334FF0805545EA131343EA1263F8
:10DEB0004FEA022245EA111545EA10654FEA0026AD
:10DEC0000EF000419D4208BF964244F1FD0404F566
:10DED000407402D25B084FEA3202B61A65EB0305C2
:10DEE0005B084FEA32024FF480104FF4002CB6EB7F
:10DEF000020E75EB030E22BFB61A754640EA0C00FF
:10DF00005B084FEA3202B6EB020E75EB030E22BF3E
:10DF1000B61A754640EA5C005B084FEA3202B6EB7F
:10DF2000020E75EB030E22BFB61A754640EA9C003E
:10DF30005B084FEA3202B6EB020E75EB030E22BF0E
:10DF4000B61A754640EADC0055EA060E18D04FEACC
:10DF5000051545EA16754FEA06164FEAC30343EA6C
:10DF600052734FEAC2025FEA1C1CC0D111F4801F39
:10DF70000BD141EA00014FF000004FF0004CB6E732
:10DF800011F4801F04BF01430020B4F1FD0C88BFD1
:10DF9000BCF5E06F3FF6AFAEB5EB030C04BFB6EBDC
:10DFA000020C5FEA500C50F1000041EB045170BDCF
:10DFB0000EF0004E4EEA113114EB5C04C2BFD4EBFC
:10DFC0000C0541EA045170BD41F480114FF0000E80
:10DFD000013C90E645EA060E8DE60CEA135594EAFC
:10DFE0000C0F08BF95EA0C0F3FF43BAF94EA0C0FFF
:10DFF0000AD150EA01347FF434AF95EA0C0F7FF474
:10E0000025AF104619462CE795EA0C0F06D152EAC7
:10E0100003353FF4FDAE1046194622E750EA4106AB
:10E0200018BF52EA43067FF4C5AE50EA41047FF4BC
:10E030000DAF52EA43057FF4EBAE12E74FF0FF3C21
:10E0400006E000BF4FF0010C02E000BF4FF0010CF2
:10E050004DF804CD4FEA410C7FEA6C5C4FEA430C6B
:10E0600018BF7FEA6C5C1BD001B050EA410C0CBFBA
:10E0700052EA430C91EA030F02BF90EA020F00201C
:10E08000704710F1000F91EA030F58BF994208BF83
:10E0900090422CBFD8176FEAE37040F00100704740
:10E0A0004FEA410C7FEA6C5C02D150EA013C07D197
:10E0B0004FEA430C7FEA6C5CD6D152EA033CD3D0E2
:10E0C0005DF8040B704700BF8446104662468C46DC
:10E0D0001946634600E000BF01B5FFF7B7FF00280F
:10E0E00048BF10F1000F01BD4DF808EDFFF7F4FF38
:10E0F0000CBF012000205DF808FB00BF4DF808EDC3
:10E10000FFF7EAFF34BF012000205DF808FB00BFE5
:10E110004DF808EDFFF7E0FF94BF012000205DF807
:10E1200008FB00BF4DF808EDFFF7CEFF94BF0120BC
:10E1300000205DF808FB00BF4DF808EDFFF7C4FFB5
:10E1400034BF012000205DF808FB00BF53B94AB975
:10E15000002908BF00281CBF4FF0FF314FF0FF30EF
:10E1600000F094B9ADF1080C6DE904CE00F028F888
:10E17000DDF804E0DDE9022304B07047D0B50022E9
:10E180000D4B06460F46FFF747FD00F081F90446A8
:10E19000FFF7C8FC0022094BFFF73EFD02460B4685
:10E1A00030463946FFF780FB00F072F90022234623
:10E1B00010431946D0BD00BF0000F03D0000F04103
:10E1C0002DE9F047089E04468846002B4BD18A4231
:10E1D000154667D9B2FA82F24AB1C2F1200701FAB4
:10E1E00002F320FA07F7954047EA030894404FEA04
:10E1F000154E230CB8FBFEF71FFA85FC0EFB1788A3
:10E2000043EA084307FB0CF1994209D9EB1807F1DF
:10E21000FF3080F01B81994240F21881023F2B446D
:10E220005B1AA4B2B3FBFEF00EFB103344EA0344C6
:10E2300000FB0CFCA44509D92C1900F1FF3380F038
:10E240000781A44540F2048102382C4440EA07408B
:10E25000A4EB0C0400271EB1D4400023C6E9004300
:10E260003946BDE8F0878B4209D9002E00F0EB80DB
:10E270000027C6E9000138463946BDE8F087B3FA01
:10E2800083F7002F47D18B4202D3824200F2FA80FB
:10E29000841A61EB030301209846002EE0D0C6E902
:10E2A0000048DDE702B9FFDEB2FA82F2002A40F050
:10E2B0008F80491B4FEA154E1FFA85F80127B1FBE5
:10E2C000FEFC230C0EFB1C1143EA014308FB0CF17E
:10E2D000994207D9EB180CF1FF3002D2994200F2B3
:10E2E000CD808446591AA3B2B1FBFEF00EFB101488
:10E2F00043EA044408FB00F8A04507D92C1900F1B3
:10E30000FF3302D2A04500F2B6801846A4EB080401
:10E3100040EA0C409FE7C7F1200CBB4022FA0CFEFC
:10E320004EEA030E01FA07F420FA0CF521FA0CF379
:10E330004FEA1E482543B3FBF8F92C0C08FB1933B0
:10E340001FFA8EFA44EA034309FB0AF49C4202FADC
:10E3500007F200FA07F10BD91EEB030309F1FF30B6
:10E3600080F087809C4240F28480A9F102097344C6
:10E370001B1BADB2B3FBF8F008FB103345EA0344B6
:10E3800000FB0AFAA24508D91EEB040400F1FF3392
:10E390006BD2A24569D90238744440EA0940A0FB17
:10E3A0000289A4EB0A044C45C2464B4654D351D0D3
:10E3B000002E69D0B1EB0A0564EB030404FA0CFCEF
:10E3C000FD40FC404CEA0505C6E90054002747E73C
:10E3D000C2F1200320FA03F7954001FA02F021FA76
:10E3E00003F34FEA154E3843010CB3FBFEF71FFA57
:10E3F00085F80EFB173341EA034107FB08F38B4214
:10E4000004FA02F407D9691807F1FF3C2FD28B42B6
:10E410002DD9023F2944CB1A81B2B3FBFEF00EFB8B
:10E42000103341EA034100FB08F38B4207D9691816
:10E4300000F1FF3C17D28B4215D902382944C91A82
:10E4400040EA07473BE73746304609E70746E7E635
:10E450001846FBE64145ABD2B8EB020A69EB0E0267
:10E4600001381346A4E76046E9E7184695E7674692
:10E47000D1E781467CE702382C4447E7ACF1020C37
:10E480002B442FE7384608E73746E9E6704700BFD8
:10E490004A0011D212F5001211D20DD56FF4787323
:10E4A000B3EB62520ED44FEAC12343F0004343EA78
:10E4B000505323FA02F070474FF00000704750EAC3
:10E4C000013002D14FF0FF3070474FF0000070472D
:10E4D000144B1B6913F4803FFAD1124B1A6922F0D6
:10E4E0007F421A615A6922F001025A615A6942F068
:10E4F00002025A615A6922F47E725A615A6942EAEA
:10E50000C00058615A6942F480325A61054B1B6958
:10E5100013F4803FFAD1034A536923F00203536195
:10E52000002070470020024008B501F5803102EB61
:10E53000C1211A4600F06CFE08BD08B500F068FE67
:10E5400008BDB0B500AF0C46CB1DDB086A46A2EB98
:10E55000C3039D466D4600F580312246C9026846D8
:10E5600000F056FE0023A34205D2EA5CFF2A05D143
:10E5700001339BB2F7E70120BD46B0BD0020FBE7A9
:10E5800010B40C4B1B6813F4806F04D0094C236843
:10E5900023F480632360074B5C6944F001045C61F1
:10E5A000016042605A6922F001025A6100205DF860
:10E5B000044B704700200240F8B517461D46184B23
:10E5C0001B6913F4803FFAD100F5803001EBC026BF
:10E5D00000241BE0285D2B19597840EA0120997826
:10E5E00040EA0140D9781A7993F805C042EA0C2232
:10E5F00093F806C042EA0C42DB7942EA036240EA41
:10E600000161A019FFF7BCFF0834A4B2BC42E1D3FA
:10E61000034B1B6913F4803FFAD10020F8BD00BF03
:10E62000002002402DE9F041ADF5006D074614468B
:10E630001D46224A136923F07F4313616318B3F523
:10E64000006F09DC0E464FF4006300220146684665
:10E65000FFF76AFF00231BE08846C1F500622B46E6
:10E6600092B2FFF7DFFF08EB040292B2C8F5006335
:10E67000A2F50062781C2B4492B2002180B2FFF711
:10E68000D1FF11E09A19E95C0DF8021001339BB239
:10E69000A342F7D33846FFF71BFF6B464FF40062E7
:10E6A00000213846FFF788FF044B1B6913F4803FB5
:10E6B000FAD100200DF5006DBDE8F0810020024088
:10E6C00010B50346C0F3CF209BB2C402A4B21C1BFA
:10E6D00013460A46A1B2FFF7A5FF034B1B6913F4CB
:10E6E000803FFAD1002010BD0020024000B5ADF6F9
:10E6F000040D18217F20FFF724FF00282DD14FF4AF
:10E70000006219496846FFF718FF379A174B1B68D4
:10E710009A4214D01A20FFF7DBFE144B1B68379384
:10E72000134B1B680B93134B1B680E93124B1B6808
:10E730000F936A464FF400610B48FFF7C1FF0F4B80
:10E74000094A9A600E4BA2F560521A600D4800F01B
:10E75000F9FC0DF6040D5DF804FB0B4A18210B487B
:10E76000FFF7AEFFCBE700BF00D00008DC000008D9
:10E770002C000008380000083C00000800ED00E014
:10E780000C4100206CF2000850F2000800F8030869
:10E790000138C0B2022801D801207047002070471C
:10E7A00038B504460D46FFF7F3FF0346A8B1002233
:10E7B0004FF6BA339A420BD8631E0A4951F82330F8
:10E7C000D96911F0800F01D10132F1E7ADB21D8599
:10E7D0004FF6BA339A4202D80123184638BD0023B7
:10E7E000FBE700BFE440002070B504460D46FFF78C
:10E7F000CFFF064670B100224FF6BA339A4211D8C5
:10E80000631E0C4951F82330D96911F0200F05D14E
:10E810000132F1E700232B70304670BD9E8CF6B2BA
:10E8200001232B704FF6BA339A42F5D900232B708F
:10E83000FF26F1E7E440002082B0234B9B6D13F0EC
:10E84000805F15D0214B1B6803F4C063B3F5007FD4
:10E8500021D000211E4A136823F007030B431360E5
:10E86000136803F007038B421FD0002002B07047EB
:10E87000154A936D43F080539365936D03F0805375
:10E880000193019B114B1B6803F4C063916D21F050
:10E8900080519165DAE7802803D9A02803D90221A5
:10E8A000D8E70021D6E70121D4E7A2F5805213680A
:10E8B00043F008031360136823F0F00343F0B00340
:10E8C00013600120D2E700BF00100240007000403A
:10E8D0000020024010B5114CD4F8883043F4700386
:10E8E000C4F888300E4B1A6842F001021A60002109
:10E8F00099601A6822F0A85222F410221A604FF48C
:10E900008052DA601A6822F480221A609961B0207D
:10E91000FFF792FF4FF00063A36010BD00ED00E031
:10E920000010024010B50C461368012B05D0022BD5
:10E9300007D023680133236010BD5368C0B29847E5
:10E94000F7E793681870936801339360F1E730B488
:10E95000441C00250570B2B1096809B1002009E026
:10E9600030234370012024E0C1F1300121700130D7
:10E9700001341146E9B191FBF3F203FB12110029B6
:10E98000F2DB3031F2E715460A6842B930234370B2
:10E9900001200EE037322270013501340A463AB1C7
:10E9A000B2FBF3F101FB1322092AF3D83032F2E76C
:10E9B000284630BC7047F8B504460D4617461E463B
:10E9C00005E0324639463020FFF7ACFF0134AC4257
:10E9D000F7DBF8BDF8B504460D4617461E4605E0C0
:10E9E000324639462020FFF79DFF0134AC42F7DB69
:10E9F000F8BD08B501460320FFF7D2FE08BD0000B0
:10EA00002DE9F047ADF54A7D05460F4692464FF495
:10EA1000C8742246002166A800F005FC22460021A9
:10EA200002A800F000FCD5E9004520462946FFF782
:10EA3000A5FB80468946FFF7B9F802460B462046FB
:10EA40002946FEF731FF04460D46534604E00022F6
:10EA50004D4BFFF7E1F833465E1E002BF7D1FFF771
:10EA60008DFBCDE90001002608E00022464B204640
:10EA70002946FFF7D1F804460D46013640A3D3E9F5
:10EA8000002320462946FFF739FB38B10022002336
:10EA900020462946FFF728FB0028E6D058EA09035C
:10EAA00025D130233B7001235D1C2E22FA54DDE971
:10EAB000008943464C46234333D0002447E00A22D2
:10EAC000002340464946FFF741FB651C66AB43F80F
:10EAD00024200A22002340464946FFF737FB8046A0
:10EAE00089462C4658EA0903E9D1002308E00024AE
:10EAF000F8E7013C66AA52F824203032FA54013378
:10EB0000002CF6D1D0E730237B55134601355A1E31
:10EB1000002BF8D100237B5528460DF54A7DBDE832
:10EB2000F0875346F3E70A22002340464946FFF7A1
:10EB30000DFB04F1010A02AB43F824200A22002352
:10EB400040464946FFF702FB80468946544658EA4C
:10EB50000903E8D105E0002302AA42F82430013E6F
:10EB60000134002EF7D106E0013C02AB53F824300B
:10EB700030337B550135002CF6D1CBE7AFF3008065
:10EB80009A9999999999B93F000024402DE9F04F3D
:10EB900097B001900C469146212200210DA800F06B
:10EBA00042FB30238DF8343000230C930122029273
:10EBB0009B460BE0019D2A460CA90D20FFF7B2FEF3
:10EBC0002A460CA90A20FFF7ADFE01342078002860
:10EBD00000F0B482252841D00A28EBD0019A0CA974
:10EBE000FFF7A0FEF1E746F00106144600293AD1EE
:10EBF000621C6378203B102B33D801A050F823F01F
:10EC00004BEC000863EC000863EC000857EC0008CC
:10EC100063EC000863EC000863EC000863EC000898
:10EC200063EC000863EC000863EC000845EC0008A6
:10EC300063EC0008E7EB000863EC000863EC0008F5
:10EC400051EC000846F00206CFE746F00406CCE798
:10EC500046F00806C9E746F01006C6E7002631462A
:10EC6000C4E70121C2E700252F4600E00F4667B93F
:10EC7000601C6378A3F13002092AF7D805EB8505FB
:10EC80006A00303BD5180446F1E7621C63782E2BEE
:10EC900036D04FF00008CDF80880631C6278682AEF
:10ECA00004D06C2A42D04C2A43D023465C1C5878AE
:10ECB000A0F15803202B00F23A82DFE813F01F0185
:10ECC0003802380238023802380238023802380274
:10ECD0003802A201EF013D0038029A0038023802E2
:10ECE0003D00380238023802380231028401B10195
:10ECF00038023802F9013802C001380238021F0117
:10ED00004FF00008404600E0384668B9541C53787C
:10ED1000A3F130010929F7D808EB88084FEA480227
:10ED200002EB01082246F0E71446B6E74BF0010B70
:10ED3000BCE74BF0020BB9E709F10407D9F8003042
:10ED400016A941F82C3D0A2301220DA8FFF7FFFD6B
:10ED500082460DAB03EB00080B9B002B07DB16F084
:10ED6000020F17D000F1010A4FF02B0903E000F168
:10ED7000010A4FF02D0916F0080F19D0B9F1000F54
:10ED800010D1019B0CAA29465046FFF714FEAA4653
:10ED9000B94671E116F00409EDD000F1010A4FF017
:10EDA0002009E8E7019A0CA94846FFF7BBFDE8E710
:10EDB00016F0010F04D0B9F1000F13D1B9465BE191
:10EDC000019B0CAA29465046FFF704FEB9F1000F3B
:10EDD00001D1B94650E1019A0CA94846FFF7A2FDBE
:10EDE000B94649E1019A0CA94846FFF79BFDB9468F
:10EDF00042E109F10C07D9E9019ACDE9089A00220C
:10EE0000002348465146FFF779F940B916F0020F42
:10EE10002BD116F004090DD04FF020090AE0CDF8EF
:10EE200010900AF1004305939DED047B8DED087B66
:10EE30004FF02D09029BDBB9BBF1000F1FD1062259
:10EE40000DA908A8FFF7DCFD804616F0080F23D0B7
:10EE5000B9F1000F1AD1019B0CAA29464046FFF7D1
:10EE6000AAFDA8460DF1340937E04FF02B09E1E780
:10EE700042460DA908A8FFF7C3FD8046E5E7062234
:10EE80000DA908A8FFF7BCFD8046DEE7019A0CA992
:10EE90004846FFF747FDDEE716F0010F08D0B9F14D
:10EEA000000FDFD0019A0CA94846FFF73BFDD9E7D8
:10EEB000019B0CAA29464046FFF78CFDB9F1000FD3
:10EEC000D0D0019A0CA94846FFF72CFDCAE709F1FA
:10EED0000109019A0CA9FFF725FD99F80000002807
:10EEE000F5D116F0010F01D1B9466EE6019B0CAACF
:10EEF00029464046FFF76EFDB94666E609F1040370
:10EF00000393D9F8003016A941F83C3D10230022A4
:10EF10000DA8FFF71CFD82460DAB03EB000816F0B1
:10EF2000080921D016F0100910D1019B0CAA29461E
:10EF30005046FFF740FDAA4616F0100F00F0AB80D8
:10EF4000B9F1000F2FD0DDF80C9095E0DDF80490BA
:10EF50004A460CA93020FFF7E5FC4A460CA9782068
:10EF6000FFF7E0FCB946E0E716F0010FE4D116F038
:10EF7000100901D000F1020A019B0CAA2946504653
:10EF8000FFF728FDB9F1000FD6D0DDF804904A460E
:10EF90000CA93020FFF7C6FC4A460CA97820FFF7E1
:10EFA000C1FCB946C8E7019F3A460CA93020FFF7DB
:10EFB000B9FC3A460CA97820FFF7B4FC0AF1020A22
:10EFC000DDF80C9058E009F10407D9F8003016A9D3
:10EFD00041F83C3D082300220DA8FFF7B8FC82460B
:10EFE000B9460DAB03EB0A0816F0080F36D116F040
:10EFF000010F41D1019B0CAA29465046FFF7EAFCBC
:10F000003AE009F10407D9F8003016A941F83C3D6F
:10F01000022300220DA8FFF79AFC8246B946E0E7DA
:10F0200009F10407D9F8003016A941F83C3D102336
:10F0300000220DA8FFF78BFC8246B946D1E709F103
:10F040000407D9F8003016A941F83C3D0A230022F4
:10F050000DA8FFF77CFC8246B946C2E7019B0CAACB
:10F0600029465046FFF7A7FCAA4605E008F1FF38FD
:10F07000019A0CA9FFF756FC98F800000028F5D17A
:10F0800016F0010F3FF4A1AD019B0CAA2946504692
:10F09000FFF7A0FC99E5DDF80C90EDE709F1040518
:10F0A000019A0CA999F80000FFF73CFCA9468CE5F1
:10F0B00009F1040AD9F80070002F3DD03846FEF758
:10F0C000E7FB814616F0010603D0B8F1000F0DD121
:10F0D00018E0019B0CAA2946FFF77CFCF5E708F134
:10F0E000FF380137019A0CA9FFF71CFCB8F1000F9B
:10F0F0000BDD38780028F2D107E00137019A0CA91E
:10F10000FFF710FC38780028F7D10EB9D1465CE53E
:10F11000019B0CAA29464846FFF75CFCD14654E502
:10F12000D9F800300C9A1A6009F104094DE5019AEA
:10F130000CA9FFF7F7FB48E5D14646E50C9817B058
:10F14000BDE8F08F0FB400B585B001230193064BE5
:10F15000029306AA52F8041B01A8FFF717FD05B099
:10F160005DF804EB04B07047F3E90008DFF838D02D
:10F17000002103E00D4B5B58435004310C480D4B0C
:10F1800042189A42F6D30C4A02E0002342F8043BAC
:10F190000A4B9A42F9D3FFF79DFBFFF7A7FA00F05D
:10F1A00013F8FEF74DFBFEE7FFFF0020B0F200086A
:10F1B00000400020F0400020F040002010410020DE
:10F1C00000B500BF00BD000070B50D4E0D4CA41B76
:10F1D000A4100025A54209D10B4E0C4C00F02CF8D0
:10F1E000A41BA4100025A54205D170BD56F82530FA
:10F1F00098470135EEE756F8253098470135F2E794
:10F20000A0F20008A0F20008A0F20008A4F2000892
:10F2100010B5431E0A44914200D110BD11F8014BB4
:10F2200003F8014FF7E702440346934200D17047C9
:10F2300003F8011BF9E70000F8B500BFF8BC08BCF3
:10F240009E467047F8B500BFF8BC08BC9E467047A4
:10F25000303132333435363738394142434445460C
:10F260003230323030373136000000002020A1BE6D
:10F2700055736572CCE1CABEA1BFA3BABDABBDF8E0
:10F28000C8EB55736572B5C46D61696E2829D6B433
:08F29000D0D02E2E2E0D0A0035
:08F2980028EFFF7F01000000D8
:08F2A00025D800080000000061
:08F2A80001D80008000000007D
:10F2B0002D2D2D2D2D2D2D2D2D2D2D2D2D2D2D2D7E
:10F2C0002D2D2D2D2D2D2D2D2D2D2D2D2D2D2D2D6E
:10F2D0002D2D2D2D2D2D2D2D2D2D2D2D2D2D2D2D5E
:10F2E0002D2D2D2D2D2D2D2D2D2D2D2D2D2D2D2D4E
:10F2F0002D2D2D2D2D2D0ABDF0BAF9C2ABCCE1CAB2
:10F30000BEA3BA0A20202020B1BEB9A4B3CCCAB58E
:10F31000CFD6313030D2D4C4DAC6E6CAFDD6AEBAC2
:10F32000CDA3ACD4CBD0D0BDE1B9FBC8E7CFC2CB25
:10F33000F9CABEA3A1202020200A2D2D2D2D2D2D70
:10F340002D2D2D2D2D2D2D2D2D2D2D2D2D2D2D2DED
:10F350002D2D2D2D2D2D2D2D2D2D2D2D2D2D2D2DDD
:10F360002D2D2D2D2D2D2D2D2D2D2D2D2D2D2D2DCD
:10F370002D2D2D2D2D2D2D2D2D2D2D2D2D2D2D2DBD
:10F380000A0073756D3A25640A0000000000000051
:10F3900000000000003801400044004000480040E8
:040000050800F16D91
:00000001FF
